:020000040800F2
:10000000000D0020B9020008F9320008632D000835
:10001000AD320008AD050008153B000800000000E7
:100020000000000000000000000000000334000891
:10003000CF06000800000000013400080534000865
:10004000D3020008D3020008D3020008D30200083C
:10005000D3020008D3020008D3020008D30200082C
:10006000D3020008D3020008D302000815060008D6
:1000700021060008D3020008D3020008D3020008BA
:10008000D3020008D3020008D3020008D3020008FC
:10009000D3020008D3020008D3020008D3020008EC
:1000A000D3020008D3020008D3020008D3020008DC
:1000B000D3020008D3020008D3020008D3020008CC
:1000C000D3020008D3020008D3020008D3020008BC
:1000D000D3020008F93A0008D3020008D30200084E
:1000E000D1060008D3020008D3020008D30200089A
:1000F000D3020008D3020008D3020008D30200088C
:10010000D3020008D3020008D3020008D30200087B
:10011000D3020008D3020008D3020008D30200086B
:10012000D3020008D3020008D3020008D30200085B
:10013000D3020008D3020008D3020008D30200084B
:10014000D3020008D3020008D3020008D30200083B
:10015000D3020008D3020008D3020008D30200082B
:10016000D3020008D3020008D3020008D30200081B
:10017000D3020008D3020008D3020008D30200080B
:10018000D3020008D3020008D3020008D3020008FB
:10019000D302000800000000D3020008D3020008C8
:1001A000D3020008D3020008D3020008D3020008DB
:1001B000D3020008D3020008D3020008D3020008CB
:1001C000D3020008D3020008D3020008D3020008BB
:1001D000D3020008D302000800F002F800F05CF837
:1001E0000AA090E8000C82448344AAF10107DA4592
:1001F00001D100F051F8AFF2090EBAE80F0013F088
:10020000010F18BFFB1A43F001031847583A0000CA
:10021000783A00000A444FF0000C10F8013B13F04C
:10022000070408BF10F8014B1D1108BF10F8015B4F
:10023000641E05D010F8016B641E01F8016BF9D142
:1002400013F0080F1EBF10F8014BAD1C0C1B09D199
:100250006D1E58BF01F801CBFAD505E014F8016B0B
:1002600001F8016B6D1EF9D59142D6D3704700009D
:100270000023002400250026103A28BF78C1FBD8AF
:10028000520728BF30C148BF0B6070471FB503F04D
:10029000C3FC1FBD10B510BD00F0D4F81146FFF728
:1002A000F5FF03F07BFC00F0F2F803B4FFF7F2FF78
:1002B00003BC00F0F3F800000948804709480047F4
:1002C000FEE7FEE7FEE7FEE7FEE7FEE7FEE7FEE706
:1002D000FEE7FEE704480549054A064B7047000063
:1002E00071340008D901000800070020000D00202B
:1002F000000900200009002053EA020C00F0698088
:100300002DE9F04B4FF00006002B1FBFB3FA83F529
:1003100003FA05F424FA05F65E4012BF1643B2FA5A
:1003200082F502FA05F4C5F120051EBF22FA05FC8C
:1003300044EA0C04203556EA044C4FEA144418BF32
:10034000641C4FF000084FF00009904271EB030C61
:1003500039D3002919BFB1FA81F701FA07F6B0FACB
:1003600080F700FA07F6C7F120071EBF20FA07FC46
:1003700046EA0C062037B6FBF4FCA7EB0507103F56
:1003800007F01F0BCBF120060CFA0BFB2CFA06F63C
:1003900044BFB3460026202FA4BF5E464FF0000B9B
:1003A0005BEA060C08BF4FF0010B19EB0B09ABFB26
:1003B000027C48EB0608C01B06FB02CC0BFB03CCFF
:1003C00071EB0C01C1E70B46024641464846BDE8C9
:1003D000F08B13B54FF000004FF00001AFF3008039
:1003E000BDE81C4070474FF0000200B5134694462C
:1003F0009646203922BFA0E80C50A0E80C50B1F17D
:100400002001BFF4F7AF090728BFA0E80C5048BF90
:100410000CC05DF804EB890028BF40F8042B08BF2E
:10042000704748BF20F8022B11F0804F18BF00F82A
:10043000012B7047704770477047000000487047B5
:10044000A00600207546FFF7F9FFAE460500694695
:10045000534620F00700854618B020B5FFF73AFF55
:10046000BDE820404FF000064FF000074FF00008B5
:100470004FF0000B21F00701AC46ACE8C009ACE836
:10048000C009ACE8C009ACE8C0098D467047044615
:10049000AFF300802046FFF708FF00000149182055
:1004A000ABBEFEE726000200704710B5846AE16D1E
:1004B00011F0500F06D0E16DC90625D5204600F099
:1004C00000FC10BDE06D40F40070E065206801683C
:1004D000090716D502F048FD78B12068C06880048D
:1004E00000280ADBE06D20F48070E065E06DC00458
:1004F00003D4E06D40F00100E065204600F0CAFB47
:1005000010BDC0688007EBE7616D496BBDE8104026
:10051000084710B5806AC16D41F04001C165016EA8
:1005200041F00401016600F0CCFB10BD10B5806AFB
:1005300000F0C6FB10BD000070B50446006881687D
:1005400011F0010F2DD18168174A11421AD181682B
:10055000D5432940491C816001F04CFA06461BE056
:10056000816811F0010F03D181682940491C816025
:1005700001F040FA801B02280ED920680068C043B1
:10058000C00709D0E06D40F01000E065206E40F03B
:1005900001002066012070BD20680168C943C907B9
:1005A000DED1002070BD00003F000080FEE710B5E6
:1005B000846A204600F06CFE0120207110BD10B549
:1005C000846A204600F086FD0120207110BD10B520
:1005D000846A206940F004002061204600F05AFE41
:1005E0000120207110BD10B5846A206940F004001C
:1005F0002061204600F070FD0120207110BD10B573
:10060000806A00F046FE10BD10B5806A00F063FD00
:1006100010BD0000014800F09CBF00004004002015
:10062000014800F096BF0000B40400200D490268A4
:100630008A4201D20C4901E00B492031D2B2142385
:10064000083AB2FBF3F2436C02F01F0223F00303FB
:100650001944816404498031C164012191400165DC
:100660007047000008040240000802400179074A70
:1006700002EB81024265054A4432491E826501F05F
:100680001F0201219140C16570470000FC08024033
:1006900030B5D0E913456560446D14B1D0E9164515
:1006A000656090F8444004F01F050124AC40056CDF
:1006B0006C60046863608368102B036803D09960E2
:1006C0000068C26030BD9A600068C16030BD70478C
:1006D0004FF4005001F054B872B6FEE72DE9F04F28
:1006E000044690F858009BB00F464FF0000B0128CD
:1006F00012D0012084F8580000261796189620681A
:100700004FF0A048DFF81891DFF818A1464D40459A
:1007100006D12846009508E002201BB0BDE8F08F06
:10072000484515D15046CDF800A002F019FC0090C4
:10073000206802F015FC0099084311D0E06D40F0EC
:100740002000E0654FF0010B84F858605846E4E75C
:10075000E06D40F02000E06584F858600120DCE79F
:1007600020684146884201D0A84201D12F4800E0CC
:100770002F48D7F800C02F4B40F61F72BCF1000F76
:100780002DD0D0F808C094F838802CF4604C4CEA96
:10079000483CD7F804804CEA080CC0F808C0D4F8EC
:1007A00000C08C4501D0AC4504D18968AB6801F02C
:1007B000010109E0D9F80810DAF8085001F0010148
:1007C00005F001059B68294303F001031943BBD1E0
:1007D000BB68396819438368934319431DE08768F0
:1007E00027F46047876027688F4201D0AF4204D169
:1007F0008968AB6801F0010109E0D9F80810DAF85E
:10080000085001F0010105F001059B68294303F040
:100810000103194398D181689143816094E70000F6
:10082000000400500005005000010050000300507B
:1008300000070050000600502DE9F84F002704463D
:10084000009790F85800DFF810840D46B94601284B
:1008500011D0012684F85860206802F07DFB60B159
:10086000E06D40F02000E0655FF0010784F85890EB
:100870003846BDE8F88F0220FBE7D5E900210C23BC
:10088000206803EA91131844036B01F01F014FF035
:100890001F0C0CFA01FCC2F3846223EA0C038A40A9
:1008A00013430363206802F057FB8246206802F07E
:1008B0004FFB5AEA00003CD1AA6829682068B2F1CF
:1008C000004F37D002F058FB2068416921F0004109
:1008D000416120686969C268C2F3C1025200914057
:1008E0002A69042A31D000EB82002B68026EDFF8FF
:1008F0006CC303F0F84302EA0C020B431A4342F0C4
:100900000041016622682869A96902EB8000026E35
:1009100022F080720A430266297F20682A69012931
:1009200010D0002100EB8200026E22F000720A4318
:1009300002667DE0002202F01FFB2068416941F061
:100940000041C5E74FF00071ECE7002102F0FAFA30
:10095000400320684FF0000172D002F0F3FA90FAE1
:10096000A0F0B0FA80F1286842036ED090FAA0F0AF
:10097000B0FA80F0814204D100221146206802F0D2
:100980000AFB0121206802F0DDFA400320684FF0E5
:1009900001015DD002F0D6FA90FAA0F0B0FA80F131
:1009A0002868420359D090FAA0F0B0FA80F0814252
:1009B00004D100220121206802F0EDFA0221206812
:1009C00002F0C0FA400320684FF0020148D002F064
:1009D000B9FA90FAA0F0B0FA80F12868420344D046
:1009E00090FAA0F0B0FA80F0814204D100220221F6
:1009F000206802F0D0FA0321206802F0A3FA400335
:100A000020684FF0030133D002F09CFA90FAA0F076
:100A1000B0FA80F1286842032FD090FAA0F0B0FA23
:100A200080F0814204D100220321206802F0B3FA51
:100A30002068816811F0010F22D0A7E000E004E0F7
:100A400002F080FAC0F384618DE7C0F3846091E71F
:100A500002F078FAC0F38461A2E7C0F38460A6E7ED
:100A600002F070FAC0F38461B7E7C0F38460BBE7BB
:100A700002F068FAC0F38461CCE7C0F38460D0E789
:100A8000EB682968434550F8B03FC1F3120101D12A
:100A90000B4300E08B430360E868404576D128684B
:100AA00041031BD090FAA0F1B1FA81F1491C01F089
:100AB0001F0109294FEA403131D8002911D090FA9D
:100AC000A0F1B1FA81F100BF01F1010101F01F01B4
:100AD00006FA01F608D1C0F3846109E0C0F384612D
:100AE000E4E7C0F38461EFE790FAA0F1B1FA81F195
:100AF00001F1010101F01F0146EA816102D1C0F359
:100B0000846003E090FAA0F0B0FA80F000F10100F8
:100B100000F01F0000EB400041EA005132E00029E4
:100B20000ED090FAA0F1B1FA81F100BF01F10101FC
:100B300001F01F0106FA01F605D1C0F3846106E059
:100B4000C0F38461F2E790FAA0F1B1FA81F101F10A
:100B5000010101F01F0146EA816102D1C0F3846006
:100B600003E090FAA0F0B0FA80F000F1010000F08C
:100B70001F003B4A00EB400002EB005041EA00013D
:100B800041F00071AA68206802F0F6F935482B6838
:100B900003423FF46BAE22684FF0A04C3248334E14
:100BA000334D624501D0AA4201D1014600E03146F1
:100BB0008968DFF8C08001F0E071434503D0DFF8B9
:100BC000B880434521D15FEA01281ED4624506D092
:100BD0002A4B9A427FF44AAEAA4200D0304641F4F2
:100BE0000001826822F0E0720A43826024482549AD
:100BF0000068B0FBF1F0401C00EB4000800000E01A
:100C0000401E00900028FBD130E6DFF87C80434591
:100C10000FD15FEAC1180CD4AA4202D11B4B9A42F1
:100C2000F2D0624502D0AA4200D0304641F0807135
:100C30000CE0DFF85C804345E6D14B02E4D4AA42E5
:100C4000E2D0624500D0304641F48001826822F053
:100C5000E0720A43826009E600007F4000F0FF0373
:100C6000000020FE00000880000300500007005034
:100C700000010050000021C31000C0900006005089
:100C80000C000020400D0300000052C7000500507A
:100C9000000084CB084A002190420BD1074800F1A4
:100CA000C80200BF30F8113022F81130491C89B257
:100CB0006429F7D370470000D403002044020020C9
:100CC00070477047F8B54FF0000504002E460095B8
:100CD00002D0E06D10B107E00120F8BD204600F021
:100CE0000DF9266684F8586020688168C1F3407168
:100CF00019B18168754A1140816020688168C1F32B
:100D0000007189B98168724A114041F08051816057
:100D1000704871490068B0FBF1F04000801C00E0B1
:100D2000401E00900028FBD120688168C1F300714B
:100D300041B9E16D41F01001E165216E41F0010121
:100D40002166012502F008F9E16D01F0100101436F
:100D5000E06D05D040F01000E06501252846F8BDA3
:100D600020F4807040F00200E0652068816811F096
:100D7000010F27D14FF0A043584A984201D090422A
:100D800004D19968966801F001010AE05449896824
:100D9000544E01F00101B66806F001063143524E8F
:100DA000B66806F0010631430CD1984201D090425A
:100DB00001D14E4800E04E486168826822F47C12FE
:100DC0000A438260E168E06B627F0843A16841EA00
:100DD0004231084394F8241040EA0140012904D12B
:100DE000218D444A02EB41410843E16A29B101F4F3
:100DF0007871226B014342EA01002168CA683E4BC8
:100E00001A400243CA6020680169626B21F04061A8
:100E100011430161206802F09FF80646206802F045
:100E200097F830432ED1207F94F838102268800341
:100E300040EA4101D06844F2020398430843D0607D
:100E400020690028206801690AD041F480310161DD
:100E5000206850F8C01F22696FF30D01114307E0AD
:100E600021F480310161206850F8C01F6FF30D013B
:100E7000016094F8400001280CD02068016921F03D
:100E800001010161606901282068016B21F00F01F7
:100E900011D013E0D4E911010843D4E9131211432E
:100EA000084321680A6940F2FC739A43104340F0FA
:100EB00001000861E6E7226A521E11430163E06DFA
:100EC00020F0020040F00100E06547E7C0FFFF5F4F
:100ED000C0FFFF7F0C000020400D03000001005008
:100EE00000040050000500500006005000030050B0
:100EF000000700500000FEFF0740F0FF70B59CB0F7
:100F00000546142115A8FFF76EFA54216846FFF72D
:100F10006AFA2868B0F1A04F3ED14FF4004000902B
:100F200080031190684600F063FE08B1FFF7D4FB20
:100F30001A49C86C40F40050C864C86C00F40050F2
:100F40001A90C86C40F00100C864C86C002600F01C
:100F500001001A90012015900320CDE9160615A96D
:100F60004FF0904000F018FC0E4C0D48206005201A
:100F7000C4E901068020C4E903604000606180008C
:100F8000A0612020C4E90706204600F03FFB08B11D
:100F9000FFF7A2FB6C65A5621CB070BD001002409B
:100FA00008000240400400202DE9F0470446006894
:100FB0004FF0A0483D4F91468A46404501D0B84287
:100FC00001D13B4900E03B49896801F01F0501F070
:100FD000C3FF002868D194F85800012864D001208C
:100FE00084F8580034492068884201D1012000E08B
:100FF0000020401E28424FF0000605D0052D03D0EA
:10100000092D01D0012003E02046FFF795FA18B121
:1010100084F85860BDE8F087E06D40F601618843D0
:1010200040F48070E0652068B84201D1414605E097
:101030002249884201D1224900E00146814200D084
:101040001DB9E06D20F48010E065E06DC00404D5AA
:10105000206E20F00600206600E02666616D1948CB
:10106000C862616D18480863616D1848486321685B
:101070001C20086084F858602068416841F0100125
:1010800041602068C16841F00101C16021684B46A0
:1010900052464031606D00F019FB21688A680C4BA4
:1010A0001A40121D8A60B5E70220B3E70001005024
:1010B00000030050000700500006005000050050DB
:1010C00000040050AB0400082D05000813050008BB
:1010D000C0FFFF7F70477047704700002DE9F04761
:1010E0000446407990460D4601280BD04FF0010987
:1010F00084F8059002202071A96808F010060429E0
:1011000003D045E00220BDE8F08700F073FC0746FD
:101110005FEA08004FF0030805D01CE000F06AFC0D
:10112000C01B01280FD82068406B0004F6D40120B2
:1011300000F012FB2168686A086416E000F05AFCAF
:10114000C01B012807D9206940F00800206184F8FD
:1011500004800320D7E72068406B0028EEDB0120E5
:1011600000F0FAFA2168686A48642068816C40F2ED
:10117000FF32B2409143AA6AB240114381642068B1
:10118000C16CFF22B2409143EA6AB2401143C1648C
:10119000E869012808D12268916B1F20B040814383
:1011A000286AB040084390632068C06B0721B140B3
:1011B0008843A969012903D0022955D06969E9B397
:1011C00000216B69AA681A430A434FF4807101FA3F
:1011D00006F398432B79012B00D0002111434FF4E3
:1011E000007202FA06F398436B79012B00D00022BB
:1011F00020F44047286842EA0108022836D0074315
:10120000216808FA06F03843C863206801684FF483
:101210008042B240914301602268116840F6FE703E
:10122000B0408143E868B04008431060206801681E
:10123000C022B24091430160287B00E014E0297C89
:101240002268C0F3830001F03C0140EA8110116E76
:1012500040F60F73B3409943B0400143116684F8E0
:101260000490002060714EE70121AAE700F02EFFF4
:101270000549884202D947F40047C1E7034988423B
:10128000BED947F48047BBE70068890900B4C404AD
:1012900070477047704770B5040003D0207900256F
:1012A00010B105E0012070BD6571204600F008F81E
:1012B00002202071256101202071002070BD0000F6
:1012C000F0B587B0054614216846FFF78CF81D4934
:1012D0002868884233D11C49C86C40F48030C86407
:1012E000C86C00F480300590C86C40F00100C86400
:1012F000C86C102700F0010000970590032000261D
:10130000CDE9010669464FF0904000F045FA104CD7
:101310000E4820600620C4E901078020C4E903606C
:10132000800060614000A0612020C4E907062046DB
:1013300000F06CF908B1FFF7CFF9AC60A56207B017
:10134000F0BD000000080050001002401C000240E8
:10135000B40400202DE9F04104460D46174661799A
:1013600000220698012920D00126667102212171F0
:10137000F5B1D4F80CC03849CCF82C10D4F80CC016
:101380003649CCF83010D4F80CC03549CCF83410BC
:101390002168D1F800C04CF0805CC1F800C090B367
:1013A000042834D0082837D134E00220BDE8F08189
:1013B000D4F808C02B49CCF82C10D4F808C02A491E
:1013C000CCF83010D4F808C02849CCF83410216883
:1013D000D1F800C04CF4805CC1F800C020B10428F2
:1013E00005D0082808D105E02268083204E0226808
:1013F0000C3201E0226810322068016841F400518B
:101400000160A0680EE0FFE72268143204E0226861
:10141000183201E022681C322068016841F0005156
:101420000160E068394600F051F907004FF0000014
:10143000607105D0206940F0040020613846B5E7AE
:101440002068016805F010029640314301600120D8
:1014500000F082F9F2E70000BF0500080906000865
:10146000E7050008AF050008FF050008CF050008E4
:1014700010B590F8253000210122022B03D0042161
:10148000C163012122E003681C6824F00E041C6083
:10149000836C1C6824F480741C6003681C6824F04E
:1014A00001041C6090F84430046C03F01F0302FA3E
:1014B00003F36360D0E913345C60436D33B11C689F
:1014C00024F480741C60D0E916345C6080F8252018
:1014D000002280F82420084610BD70B590F8252021
:1014E000002401212346022A07D00422C26380F887
:1014F000251080F82430012429E00268156825F0C1
:101500000E0515600268156825F001051560826CEE
:10151000156825F48075156090F84420056C02F07C
:101520001F0201FA02F26A60D0E913255560426D8C
:1015300032B1156825F480751560D0E9162555601F
:1015400080F8251080F82430816B01B1884720464F
:1015500070BDF0B4016C0C6801680D6890F844200F
:1015600002F01F06042202FA06F3234211D06B0791
:101570000FD50B689B0603D40B6823F004030B60A4
:1015800090F8441001F01F018A40016C4A60016B21
:101590001DE0022303FA06F727424FF0000C4FF03C
:1015A000010218D0AF0716D50C68A40605D40C6844
:1015B00024F00A040C6080F8252090F8441001F013
:1015C0001F018B40016C4B6080F824C0C16A002968
:1015D0001AD0F0BC08470823B340234214D02B078D
:1015E00012D50B6823F00E030B6090F84410036CC7
:1015F00001F01F0102FA01F15960C26380F8252051
:1016000080F824C0416BE2E7F0BC704770B504007D
:101610000CD02B4A21681420914209D2294A0A444D
:10162000B2FBF0F08000606427480AE0012070BD42
:10163000234A52420A44B2FBF0F080006064204822
:1016400008382064022084F825000A6847F6F07004
:101650008243D4E902031843D4E904352B431843E9
:10166000A3691843E3691843236A184310430860C9
:101670002046FEF7DBFFA0680025B0F5804F00D1C3
:101680006560A16C20790860D4E91301416060684D
:10169000401E032808D82046FEF7E8FF606D05606D
:1016A000D4E91601416002E06565A565E565E5637D
:1016B000012084F8250084F82450002070BD00002B
:1016C00008040240F8FFFDBF0000024070B5044668
:1016D00090F82400002501280CD0012084F8240073
:1016E00094F825600020012E06D084F824000225FD
:1016F000284670BD022070BD022684F82560E06394
:101700002068066826F0010606602046FEF7C0FF46
:10171000206B00282068016802D041F00E0106E02D
:1017200021F0040101602068016841F00A010160B4
:10173000A06C0168C90303D5016841F480710160A0
:10174000606D18B1016841F4807101602068016822
:1017500041F001010160CBE770B5044600F04AF9A1
:101760000546601C02D004484068044400F042F979
:10177000401BA042FAD370BD00000020704700005B
:10178000044910B50A68024202D00860FFF7F6FF6C
:1017900010BD0000140401402DE9F04FDFF8209245
:1017A000002301260324A9F1040B85B00F2709F1BA
:1017B000040AABF1040EFAE006FA03F52A407CD0E5
:1017C00091F804C00CF0030CBCF1010F02D0BCF185
:1017D000020F26D1D0F808C0CDF800C04FEA430C64
:1017E00004FA0CF8CDF810C0DDF800C02CEA080CA3
:1017F000CDF800C0D1F80C80DDF810C008FA0CF864
:10180000DDF800C048EA0C08C0F80880D0F804C031
:101810002CEA050C0D79C5F300159D4045EA0C0531
:1018200045600D79ED43AD070ED0C5684FEA43081A
:1018300004FA08FC25EA0C05D1F808C00CFA08FCEB
:101840004CEA050CC0F80CC00D7905F00305022D1B
:1018500016D1DD0800EB850CCDF808C0DCF820803F
:101860005D074FEAD56C07FA0CF528EA05080D6903
:1018700005FA0CF5DDF808C045EA0805CCF820505B
:1018800005684FEA430CCDF808C004FA0CFC25EAC1
:101890000C0591F804C00CF00308DDF808C008FA44
:1018A0000CF848EA0508C0F800804D6815F4403F80
:1018B0007CD0444DD5F860C000E077E04CF0010CDE
:1018C000C5F860C02D6E23F0030C05F001050095EE
:1018D0003D4D65440295AD684FEA837C4FEA1C7824
:1018E00007FA08FC25EA0C05B0F1904F06D0DFF8A6
:1018F000DCC0604505D14FF0010C20E04FF0000C3A
:101900001DE0DFF8CCC0604502D14FF0020C16E0BC
:10191000DFF8C0C0604502D14FF0030C0FE0DFF8E4
:10192000B8C0604502D14FF0040C08E0DFF8ACC04D
:10193000604502D14FF0050C01E04FF0060C0CFAA7
:1019400008FC4CEA050C029DC5F808C0D9F8005007
:10195000CC46D1F8048095435FEAC82800D51543EA
:10196000CCF80050DAF80050D446D1F80480954302
:101970005FEA882800D51543CCF80050DBF800500A
:10198000DC46D1F8048095435FEA883800D51543DA
:10199000CCF80050DEF80050F446D1F804809543AE
:1019A0005FEAC83800D51543CCF800505B1C0A68C4
:1019B00032FA03F57FF400AF05B0BDE8F08F000008
:1019C00008040140001002400000014000040048EB
:1019D00000080048000C00480010004800140048AF
:1019E0000069084000D0012070470AB1816170474A
:1019F0008162704701488068704700000000002045
:101A000002488168426811448160704700000020EC
:101A100010B50024032000F073F8002000F008F84F
:101A200008B1012401E000F025F8204610BD0000B7
:101A300070B50E4E05460024706898B14FF47A7167
:101A4000B1FBF0F00A490968B1FBF0F000F0B2FD1B
:101A500040B9102D06D200222946501E00F030F861
:101A6000356000E00124204670BD00000000002029
:101A70000C0000200A4882B0016E41F001010166AD
:101A8000016E01F001010091816D41F0805181658D
:101A9000806D00F08050009002B000F0A1B800000E
:101AA00000100240002809DB00F01F0201219140D4
:101AB0004009800000F1E020C0F8001170470000EC
:101AC000F0B40E4B1B680C46C3F30223C3F10705A9
:101AD000042D00D90425191D072901D2002300E097
:101AE000DB1E012606FA05F1491E214099409E4061
:101AF000761E16403143F0BC02F015B80CED00E044
:101B0000064900F0070208684FF6FF03184040EA54
:101B10000220034A10430860704700000CED00E00B
:101B20000000FA052B492C4B0A6832214A432B4905
:101B300040B1B0F5007F086829D020F4C06040F4BF
:101B400080602CE00868C0F34120022804D051F8DE
:101B5000800F20F4807022E0D1F8800020F48070A3
:101B6000C1F88000086820F4C06040F4007008608C
:101B7000B2FBF3F0401C00E0401E4A69520501D55B
:101B80000028F9D1486940050AD503207047C0F301
:101B90004120022806D051F8800F40F48070086080
:101BA00000207047D1F8800040F48070C1F88000B8
:101BB000086820F4C06040F400700860B2FBF3F0E5
:101BC000401C00E0401E4A695205DBD50028F9D1CF
:101BD000D8E700000C00002040420F0000700040D9
:101BE0000248816841F48041816070470070004084
:101BF0002DE9F843044600680026BB4D00035ED57E
:101C0000A86D0027C00008D4A86D40F08050A865DA
:101C1000A86D012700F080500090DFF8D092D9F82D
:101C2000001041F48071C9F80010FFF7E3FE804610
:101C300006E000BFFFF7DEFEA0EB080002282BD86D
:101C4000D9F80000C005F5D5D5F8900010F4407023
:101C500014D0216D814211D0D5F89000D5F89010A4
:101C600020F4407041F48031C5F89010D5F8901000
:101C700021F48031C5F89010C5F89000C00711D04C
:101C8000FFF7B8FE804641F2883907E0FFF7B2FE61
:101C9000A0EB0801494501D903260BE0D5F89000D7
:101CA0008007F3D5D5F89000216D20F440700843EB
:101CB000C5F890001FB1A86D20F08050A86520786D
:101CC000C00707D0D5F88800616820F003000843FA
:101CD000C5F888002078800707D5D5F88800A16866
:101CE00020F00C000843C5F888002078400707D58D
:101CF000D5F88800E16820F030000843C5F8880076
:101D00002078000707D5D5F88800216920F0C000A9
:101D10000843C5F888002078C00607D5D5F88800A4
:101D2000616920F440700843C5F888002078800677
:101D300007D5D5F88800A16920F440600843C5F8AC
:101D400088002078400607D5D5F88800E16920F49E
:101D500040500843C5F888002078000607D5D5F81C
:101D60008800216A20F440400843C5F88800208894
:101D7000C00507D5D5F88800616A20F440300843D3
:101D8000C5F888002068800307D5D5F89C00A16AB3
:101D900020F003000843C5F89C002088800507D583
:101DA000D5F88800E16A20F440200843C5F888008F
:101DB000208840050FD5D5F88800216B20F440100D
:101DC0000843C5F88800206BB0F5801F03D1E86890
:101DD00040F48010E860208800050FD5D5F8880011
:101DE000616B20F440000843C5F88800606BB0F5D3
:101DF000800F03D1E86840F48010E8602088C004B8
:101E00000FD5D5F88800A16B20F040700843C5F8C5
:101E10008800A06BB0F1807F03D1E86840F48010A7
:101E2000E86020884FF0006180040ED5D5F8880066
:101E3000E26B20F040601043C5F88800E06B8842F8
:101E400003D1E86840F48010E860208840040ED593
:101E5000D5F88800226C20F040601043C5F8880057
:101E6000206C884203D1E86840F48010E860208844
:101E700000040FD5D5F88800616C20F0405008436D
:101E8000C5F88800606CB0F1805F03D1E86840F469
:101E90008030E8602068C0030FD5D5F88800A16CB9
:101EA00020F040400843C5F88800A06CB0F1804F96
:101EB00003D1E86840F48030E860206840030FD523
:101EC000D5F89C00E16C20F440100843C5F89C0054
:101ED000E06CB0F5001F03D1E86840F48010E860C2
:101EE0003046BDE8F883000000100240007000405A
:101EF0002DE9F0470E4605004FF0000725D0DFF82A
:101F0000AC81D8F8000000F00F00B0420CD2D8F835
:101F1000001021F00F013143C8F80010D8F800007C
:101F200000F00F00B04210D12968614CC80741F29F
:101F3000883A5AD06868DFF87C91032808D00228D4
:101F400020682DD0400500282CDB0120BDE8F0875B
:101F500020688001F9D5E06800F00302E068C0F372
:101F60000310401C032A19D0534A00BFB2FBF0F003
:101F7000E268C2F306225043E268C2F34162521C97
:101F80005200B0FBF2F0484517D9A06810F0F00FEE
:101F90000CD0880711D5A86840B10EE0474AE5E7A4
:101FA0008003D0E700F0BCF8484506D9A06820F0CF
:101FB000F00040F08000A0608027A068696820F0F1
:101FC00003000843A060FFF715FD814606E000BF4F
:101FD000FFF710FDA0EB090151453AD8A0686968E8
:101FE00000F00C00B0EB810FF2D12868810714D506
:101FF000400703D5A06840F4E060A060287800079F
:1020000005D5A06820F4605040F4E060A060A068AE
:10201000A96820F0F000084304E0802F03D1A068F5
:1020200020F0F000A060D8F80010404601F00F0149
:10203000B14216D9016821F00F0131430160FFF769
:10204000D9FC074607E000BFFFF7D4FCC11B514590
:1020500001D903207AE7D8F8000000F00F00B04261
:10206000F2D12878400705D5A068E96820F4E0603F
:102070000843A0602878000706D5A068296920F4E5
:10208000605040EAC100A06000F04AF8A1680C4A24
:10209000C1F30311515C01F01F01C84009490860F8
:1020A00009480068BDE8F047FFF7C2BC00200240C5
:1020B0000010024000B4C4040024F40000366E0195
:1020C0004A3C00080C000020000000200148006885
:1020D000704700000C000020054806490068896828
:1020E000054AC1F30221515C01F01F01C84070474D
:1020F0000C000020001002405A3C00080548064928
:1021000000688968054AC1F3C221515C01F01F01D2
:10211000C84070470C000020001002405A3C0008E4
:10212000184910B58868C0F381021748012A0BD0FE
:102130008A68164BC2F38102022A06D08A68C2F36B
:102140008102032A03D0002010BD184610BDCA68C2
:1021500002F00304CA68C2F30312521C032C02D01B
:10216000B0FBF2F001E0B3FBF2F0CA68C968C2F359
:1021700006225043C1F34161491C4900B0FBF1F014
:1021800010BD0000001002400024F40000366E0173
:102190002DE9F84304007AD02078FA4DC00747D0E3
:1021A000A868E96800F00C0001F003010C2802D0D7
:1021B000082817D001E0032914D06068B0F5803FEB
:1021C00017D0B0F5A02F286817D020F480302860F1
:1021D000286820F4802028606068E0B1FFF70AFCDE
:1021E000064614E02868800322D560680028D2D013
:1021F0001EE0286840F48030EDE740F4802028603D
:10220000F7E700BFFFF7F6FB801B642870D828684B
:102210008003F7D50CE0FFF7EDFB064605E000BFB5
:10222000FFF7E8FB801B6428F0D828688003F7D408
:10223000207880074CD5A868E96800F00C0001F010
:1022400003010C2802D004280DD001E002290AD095
:10225000E068002828682BD040F480702860FFF7E1
:10226000C9FB064619E02868400502D5E068002849
:1022700091D06868217C20F0FE4040EA01606860EF
:10228000C1480068FFF7D4FB002800D120E076E1C8
:10229000FFF7B0FB801B0228B8D828684005F7D5A7
:1022A0006868217C20F0FE4040EA016068600FE031
:1022B00020F480702860FFF79DFB064605E000BF14
:1022C000FFF798FB801B0228A0D828684005F7D4A8
:1022D0002078000729D560690028D5F8940013D02C
:1022E00040F00100C5F89400FFF784FB064606E0C5
:1022F00090E000BFFFF77EFB801B022886D8D5F850
:1023000094008007F6D510E020F00100C5F8940095
:10231000FFF770FB064604E0FFF76CFB801B02280A
:1023200078D8D5F894008007F6D42078400761D596
:10233000A86D0026C00008D4A86D40F08050A865A4
:10234000A86D012600F08050009090480168C905F2
:1023500011D40168804641F480710160FFF74AFBA7
:10236000074604E0FFF746FBC01B022852D8D8F806
:102370000000C005F6D5A068012815D00528D5F8BD
:10238000900016D020F00100C5F89000D5F890001C
:1023900020F00400C5F89000A06841F28838B8B178
:1023A000FFF728FB07460EE0D5F8900040F001004B
:1023B000F0E740F00400C5F89000F5E7FFF71AFBDE
:1023C000C11B414526D8D5F890008007F6D50CE012
:1023D000FFF710FB074604E0FFF70CFBC11B41456C
:1023E00018D8D5F890008007F6D41EB1A86D20F05B
:1023F0008050A8652078800629D5A0690028D5F8E6
:10240000980013D040F00100C5F89800FFF7F2FAE9
:10241000064606E077E000BFFFF7ECFA801B0228D3
:1024200077D8D5F898008007F6D510E020F00100A5
:10243000C5F89800FFF7DEFA064604E0FFF7DAFA7F
:10244000801B022865D8D5F898008007F6D4E0698B
:10245000F0B3A968C1F38101032961D0022828687B
:1024600020F0807028600BD0E86820F00300E8605E
:10247000E86847490840E860FFF7BCFA04464BE0CB
:10248000FFF7B8FA064604E0FFF7B4FA801B02280B
:102490003FD828688001F7D4F4E908016FF00F02F3
:1024A00002EB01110843218A5204490802EB415111
:1024B000A26841EA02210843217D4FF07E4249088B
:1024C00002EB41610843217B40EAC160E96800E01A
:1024D00062E0304A11400843E860286840F08070AC
:1024E0002860E86840F08070E860FFF783FA0446EF
:1024F00005E000BFFFF77EFA001B022809D8286814
:102500008001F7D548E004E0FFF774FA001B0228C9
:1025100002D90320BDE8F88328688001F4D43BE0A9
:102520000128F7D0E868226A00F00301914226D121
:10253000616A00F0F0020901103991421FD1A26ACC
:1025400000F4FE41B1EB022F19D194F82C2000F0D9
:102550007841B1EBC26F12D1218E00F4C00249085C
:102560004905A1F50011914209D194F8341000F009
:10257000C06049084906A1F1007181420CD00120D8
:10258000C8E700000010024000000020007000407A
:10259000FFFFEEFE0C809F010020BBE74FF0E02123
:1025A0000428086903D020F004000861704740F057
:1025B0000400FAE710B5401EB0F1807F01D301207E
:1025C00010BD4FF0E02460610F21601701F0ABFAFD
:1025D0000020A06107202061002010BDF0B590F818
:1025E0003C20012A43D0012580F83C50022280F88B
:1025F0003D2003685A689C681E4E1F4FDFF87CC060
:10260000B34203D0BB4201D0634504D122F4700E23
:102610004A6842EA0E02DFF868E002EA0E02D1F8E8
:1026200000E04EEA020EC3F804E00268B24212D0A3
:10263000B2F1804F0FD0134B9A420CD0124B9A42FA
:1026400009D0124B9A4206D0BA4204D0104B9A429B
:1026500001D0624504D1896824F080031943916058
:1026600080F83D50002180F83C100846F0BD022063
:10267000F0BD0000002C014000340140005001403A
:102680008FFFFFFD0004004000080040000C0040E8
:102690000040014010B5040003D094F83D0010B193
:1026A00007E0012010BD002084F83C00204600F027
:1026B00023F8022084F83D00211D206800F0E0FE90
:1026C000012084F8480084F83E0084F83F0084F834
:1026D000400084F8410084F8420084F8430084F804
:1026E000440084F8450084F8460084F8470084F8E4
:1026F0003D00002010BD000008B50C4A01680C48E0
:10270000914207D1816D41F002018165806D00F039
:10271000020009E0074A914207D1816D41F01001A2
:102720008165806D00F01000009008BD000400403D
:10273000001002400010004090F83D10012901D027
:1027400001207047022180F83D100068124988423C
:1027500014D0B0F1804F11D0104988420ED01049EA
:1027600088420BD00F49884208D00F49884205D0D3
:102770000E49884202D00E49884207D181680D4A2D
:102780001140062906D0B1F5803F03D0016841F021
:102790000101016000207047002C0140000400404E
:1027A00000080040000C004000340140004001409F
:1027B000005001400700010070B5044690F83C004D
:1027C000002501281CD0012684F83C60022084F8F2
:1027D0003D0022689068334B184020F47F409060A1
:1027E0000868B0F5005F2ED016DC402849D009DC1F
:1027F000D0B1102818D0202816D0302849D113E0A5
:10280000022070BD50282AD0602830D070280FD008
:10281000B0F5805F3DD13DE010F00F0F39D10111CF
:10282000A1F58031072934D822680146104625E0F9
:10283000CB68D1E90121206800F08CFE2068816816
:1028400041F0770109E0CB68D1E90121206800F06F
:1028500081FE2068816841F4804181601AE0CA6885
:102860004968206800F08AFE5021206806E0CA68A6
:102870004968206800F093FE6021206800F074FE33
:1028800008E0CA684968206800F078FE40212068A6
:10289000F4E7012584F83D60002084F83C002846D8
:1028A00070BD000088FFCEFF90F88010012918D07D
:1028B000012180F880102421C0F8841050F8641B96
:1028C0000A680B6823F001030B6022F0005100221C
:1028D000026050F8643C19602021016202771046C2
:1028E0007047022070477047704770B5044690F8F3
:1028F000800001281DD0012084F880002420C4F825
:10290000840020680568026822F0010202602068E5
:10291000826822F060620A438260204600F052FE24
:10292000206805602020C4F88400002084F880001E
:1029300070BD022070BD70B5044690F8800001287B
:102940001DD0012084F880002420C4F88400206871
:102950000568026822F0010202602068826822F0A5
:1029600060420A438260204600F02CFE2068056029
:102970002020C4F88400002084F8800070BD02206C
:1029800070BD7047704770472DE9F04103680446F9
:10299000D86919689A6840F60F0528424FF000057B
:1029A00009D186067ED501F0200602F080573E430D
:1029B00078D0216F27E1A94EA94F16400F40374329
:1029C00070D0C70709D0CF0507D501271F62D4F8FB
:1029D0008C3043F00103C4F88C3083070AD5D30749
:1029E00008D0276802233B62D4F88C3043F00403FC
:1029F000C4F88C3043070AD5D30708D027680423CE
:102A00003B62D4F88C3043F00203C4F88C300307E7
:102A10000CD501F02003334308D026680823336225
:102A2000D4F88C3043F00803C4F88C3003050BD580
:102A30004B0109D526684FF400633362D4F88C301B
:102A400043F02003C4F88C30D4F88C30002B3AD0FB
:102A5000800609D501F0200002F08051084303D020
:102A6000216F09B120468847D4F88C002168896815
:102A7000490602D410F0280F27D0204600F062FE4D
:102A80002068806840061BD52068083050E8001F89
:102A900021F0400140E80012002AF5D1E06F78B142
:102AA000704900E017E08163E06FFEF716FD002833
:102AB00009D0E06F816B00E02046BDE8F041084797
:102AC0002046FFF760FFBDE8F0812046FFF75BFF7F
:102AD000C4F88C50F7E7E76E2026012F7ED1C70699
:102AE0007CD5CF067AD51020186220688068400611
:102AF00042D5E16F086840680004000CE3D0B4F8E8
:102B00005C208242DFD9A4F85E0008680068800675
:102B10002BD4206850E8001F21F4807140E8001297
:102B2000002AF6D12068083050E8001F21F001018A
:102B300040E80012002AF5D12068083050E8001F54
:102B400021F0400140E80012002AF5D1C4F8886065
:102B5000E566216851E8000F20F0100041E800020E
:102B6000002AF6D1E06FFEF783FCB4F85C00B4F8FD
:102B70005E10401A81B22CE0B4F85C00B4F85E102C
:102B8000401A81B2B4F85E0000289CD000299AD087
:102B9000226852E8000F20F4907042E80003002BF6
:102BA000F6D12E4BDB432068083050E8002F1A4046
:102BB00040E80027002FF6D1C4F88860E566256755
:102BC000226852E8000F20F0100042E80003002BBA
:102BD000F6D12046FFF787FE75E7FFE7C70209D564
:102BE000570207D54FF4801018622046BDE8F04127
:102BF000FFF7C8BE03060AD501F0800302F4000205
:102C0000134304D0616F00297FF456AF5BE742069F
:102C100011D54A060FD52046016851E8002F22F051
:102C2000400241E80023002BF6D1C0F884604567DC
:102C300000F096F847E7020206D54A0004D5204680
:102C4000BDE8F041FFF79DBEC001C5D50029C3DA3C
:102C50002046BDE8F041FFF747BE0000010000102C
:102C6000200100043137000810B5040003D0D4F867
:102C7000840010B107E0012010BD002084F880001E
:102C8000204600F027F82420C4F88400206801685A
:102C900021F001010160204600F07EFD0128EBD00B
:102CA000A06A10B1204600F0AFFC2068416821F412
:102CB000904141602068816821F02A01816020688C
:102CC000016841F0010101602046BDE8104000F0BC
:102CD000FFBC000010B59CB00446142115A8FDF7F8
:102CE00082FB54216846FDF77EFB1A492068884222
:102CF0002ED101200024CDE900046846FEF778FFBC
:102D000008B1FDF7E9FC1448016E41F48041016609
:102D1000016E01F480411A91C16C41F00401C1645B
:102D2000C06C15A900F004001A9030201590022004
:102D3000CDE916040720CDE918400848FEF72CFD20
:102D4000002211462520FEF7BBFE2520FEF7AAFE35
:102D50001CB010BD003801400010024000080048BF
:102D60007047FEE770B50D46044600F05FF8782026
:102D700000F020F800F0B0F8204600F01BF800F05A
:102D8000ABF8284600F016F800F0A6F8BDE8704051
:102D900000F076B810B5064C012211022046FEF76D
:102DA00024FE20460122BDE810405102FEF71DBE60
:102DB000000400482DE9F0411B4C064620462168DE
:102DC00021F440212160216841F4802121604FF4E9
:102DD000007700223946FEF708FE00254FF4807880
:102DE000300601D5012200E0002241462046FEF7D0
:102DF000FCFD7006060E022000F0B6FE01223946E8
:102E00002046FEF7F2FD022000F0AEFE0022394619
:102E10002046FEF7EAFD022000F0A6FE6D1CEDB292
:102E2000082DDDD3BDE8F0810004004870B5134CD7
:102E3000206820F440202060206840F4802020603A
:102E40000122150229462046FEF7CFFD0122560237
:102E500031462046FEF7C9FD042000F085FE002221
:102E600029462046FEF7C1FD042000F07DFE3146D4
:102E70002046BDE870400022FEF7B7BD00040048C0
:102E800070B5144C206820F440202060206840F485
:102E9000802020604FF40075002229462046FEF76E
:102EA000A4FD6E10002231462046FEF79EFD042050
:102EB00000F05AFE012229462046FEF796FD012227
:102EC00031462046FEF791FDBDE87040042000F039
:102ED0004BBE0000000400482DE9F041184C0025CD
:102EE000206820F440202060206820600122160223
:102EF00031462046FEF779FD012000F035FE012223
:102F0000570239462046FEF770FD012000F02CFEE6
:102F100008E06D1CEDB2FA2D04D9FFF7B1FF0120D6
:102F2000BDE8F08131462046FEF75AFD0028F0D179
:102F3000002239462046FEF758FD0020F0E7000049
:102F40000004004800EB8100006E00F0F84070477C
:102F50008068C0F3C00070478068C0F3800070478D
:102F60008068C0F380007047C06810F4406F01D0E3
:102F70000020704701207047042303EAD15310B5A5
:102F800018444369C1F3045107248C40A3438A4089
:102F90001343436110BD00EB8100016E21F000413D
:102FA000114301667047000030B58BB000240894CF
:102FB0000994202168460A94FDF715FA1E484FF03F
:102FC000A041042501604FF44031C0E90114C46000
:102FD0000461C0E90545047744770121016280F866
:102FE00024404FF49062C2628A02026380F8381073
:102FF000C46380F84040FDF765FE08B1FDF76CFB47
:1030000008A90D480894FDF769FB08B1FDF764FBBA
:103010000A4800900620CDE901047F200594CDE9FF
:10302000030569460448FDF707FC002801D0FDF7B9
:1030300053FB0BB030BD0000D4030020020030046D
:1030400000B58DB030216846FDF7CDF91249114821
:1030500008600846FEF71FF908B1FDF73DFB0220A6
:10306000009000201E218DF80400CDE902018DF8AA
:10307000050001210490CDE905010246079069464B
:103080000548FEF72BF8002801D0FDF725FB0DB011
:1030900000BD000000080050A0040020114808B541
:1030A000816C41F004018164816C01F004010091A4
:1030B000816C41F001018164806C002200F001000C
:1030C000009011460B20FEF7FBFC0B20FEF7EAFCFC
:1030D000002211460C20FEF7F3FCBDE808400C204E
:1030E000FEF7E0BC0010024030B587B014216846FE
:1030F000FDF779F92448C16C41F00401C164C16C49
:1031000001F004010591C16C41F02001C164C16C62
:1031100001F020010591C16C41F00101C164C16C55
:1031200001F001010591C16C41F00201C164C06C64
:10313000164D00F002004FF4407405900022214625
:103140002846FEF752FC4FF4005000904FF48810D0
:1031500001900020029069460D48FEF71DFB1120EA
:10316000CDE90040012002900320039069462846E3
:10317000FEF712FB002211462820FEF7A1FC2820B2
:10318000FEF790FC07B030BD00100240000400487C
:103190000008004810B588B0002417480094019436
:1031A000029403940494059412490694016010213A
:1031B000C0E901140921C0E903148461FFF76AFA28
:1031C00008B1FDF789FA4FF48050009069460A482B
:1031D000FFF7F2FA08B1FDF77FFA2020049004A966
:1031E00006940548FFF7FAF9002801D0FDF774FAB4
:1031F00008B010BD00040040140500203EB50024B6
:103200000F48009401940D49029401601021C0E917
:1032100001140921C16080218161FFF73BFA08B1E7
:10322000FDF75AFA20200090694602940448FFF7FF
:10323000D5F9002801D0FDF74FFA3EBD001000403F
:1032400060050020184810B5164901604FF4E131BF
:103250004160002181600C22C160C0E904128161DB
:10326000C161016241628162FFF7FEFC08B1FDF7B6
:1032700033FA00210C48FFF75EFB08B1FDF72CFA8A
:1032800000210948FFF731FB08B1FDF725FA064890
:10329000FFF70AFB002803D0BDE81040FDF71CBA79
:1032A00010BD000000380140AC050020FEE7000022
:1032B000094881680968C96989060CD507490A68FF
:1032C000074B41685A54491C4160642903D10021CD
:1032D000416001210170704738020020243801400C
:1032E0003C060020034988600068016841F0200125
:1032F0000160704738020020FEE70020AFF3008035
:1033000070B506465FF0000404F1B000C0B200F0F2
:1033100002FC002000F0FFFB102000F0FCFB002569
:10332000304600F0FCFB6D1CEDB2802DF8D3641C20
:10333000E4B2082CE8D370BD10B5FFF72BFD642074
:1033400000F00CFCAE2000F0E6FB202000F0E3FBD8
:10335000102000F0E0FBB02000F0DDFBC82000F002
:10336000DAFB002000F0D7FB102000F0D4FB402057
:1033700000F0D1FB812000F0CEFB204C607800F003
:10338000CAFBA12000F0C7FB207808B1A62000E00E
:10339000A72000F0C0FBA82000F0BDFB3F2000F0FC
:1033A000BAFBA42000F0B7FBD32000F0B4FB002050
:1033B00000F0B1FBD52000F0AEFBF02000F0ABFB3D
:1033C000D92000F0A8FB222000F0A5FBDA2000F0B5
:1033D000A2FB122000F09FFBDB2000F09CFB2020D2
:1033E00000F099FB8D2000F096FB142000F093FB79
:1033F000BDE81040AF2000F08EBB0000120000209E
:1034000070477047FEF7FCBA10B594B03821684693
:10341000FCF7E9FF14210EA8FCF7E5FF0020FEF7FA
:1034200081FB012000900004032406210190CDE9D6
:10343000084102205521CDE90A1007900C900D900B
:103440006846FEF7A5FE08B172B6FEE70F20CDE98B
:103450000E04002010901190129004210EA8FEF787
:1034600047FD002801D072B6FEE714B010BD000081
:103470000248016841F470010160704788ED00E086
:103480002DE9F04F02682A4B2A4E2B4FDFF8ACC0D3
:103490002B4C2C4D4FF0804B98420BD0584509D007
:1034A000B04207D0B84205D0604503D0A04201D059
:1034B000A84204D122F070084A6842EA0802DFF804
:1034C0008880DFF88890DFF888A0984211D05845AE
:1034D0000FD0B0420DD0B8420BD0604509D0A04209
:1034E00007D0404505D0484503D0504501D0A842FB
:1034F00003D122F44076CA6832434E6922F080023A
:10350000324302608A68C2620A688262984209D0C5
:10351000A04207D0404505D0484503D0504501D0D2
:10352000A84201D10969016301214161BDE8F08F21
:10353000002C01400004004000080040000C004046
:10354000003401400050014000400140004401406F
:103550000048014010B5846842EA032224F47F4405
:103560000A432243826010BD8268034B1A400A431B
:1035700042F00701816070478FFFCFFF10B5036AEB
:10358000046A24F001040462846924F0F00444EA2B
:10359000021423F00A020A438461026210BD10B5CE
:1035A000036A23F0100303628369046A23F47043FF
:1035B00043EA023224F0A00343EA0111826101626E
:1035C00010BD000030B5416EB9B1026891689268D3
:1035D000C1F342610B4B520F9C5CE50003F1080400
:1035E000A25CB5FBF2F2A0F86A205A5C615CD200E2
:1035F000B2FBF1F1A0F8681030BD0121A0F86A100B
:10360000F8E700003A3C000890F82810C90706D0F7
:1036100001684A68C36A22F400321A434A6090F88B
:103620002810890706D501684A68036B22F48032A6
:103630001A434A6090F82810490706D501684A687D
:10364000436B22F480221A434A6090F8281009073D
:1036500006D501684A68836B22F400421A434A6027
:1036600090F82810C90606D501688A68C36B22F451
:1036700080521A438A6090F82810890606D501689E
:103680008A68036C22F400521A438A6090F828106A
:10369000490611D501684A68436C22F480121A4326
:1036A0004A60416CB1F5801F06D101684A68836C9D
:1036B00022F4C0021A434A6090F82810090606D581
:1036C00001684A68C06C22F4002202434A607047D5
:1036D000F8B500260446C0F88C60FEF78BF9054665
:1036E000206800686FF07E47000708D52B4600224F
:1036F0004FF400112046009700F09AF960B9206855
:10370000006840070AD52B4600224FF4800120466E
:10371000009700F08DF908B10320F8BD2020C4F80F
:103720008400C4F8880044F86C6F00202675F8BD4A
:1037300010B5806A0021A0F85E10A0F85610FFF7BF
:1037400022F910BD10B5026852E8001F21F49071F3
:1037500042E80013002BF6D10E4B0268083252E803
:10376000001F194042E80014002CF6D1C16E012957
:1037700008D1016851E8002F22F0100241E800232F
:10378000002BF6D12021C0F888100021C166016706
:1037900010BD0000FEFFFFEF2DE9F0410446016877
:1037A00080682269E3691043626900251A43104367
:1037B000DFF84CC20A68934B1A4002430A60206843
:1037C0004168E26821F44051114341602168A069D9
:1037D000614501D0226A10438A688B4B1A4002432C
:1037E0008A602068C16A626A21F00F011143C162D8
:1037F0008649236886488B420DD1D0F8880010F0A6
:10380000030006D0012867D0022854D0032851D1E4
:1038100064E001204FE07F498B420BD1D0F8880053
:1038200010F00C0047D0042845D0082852D00C28AE
:1038300040D153E078498B420BD1D0F8880010F08A
:10384000300038D0102847D0202843D0302831D13C
:1038500044E072498B420BD1D0F8880010F0C000D0
:1038600029D0402838D0802834D0C02822D135E053
:103870006B498B420ED1D0F8880010F440701AD0FA
:10388000B0F5807F28D0B0F5007F23D0B0F5407F21
:1038900010D123E063450DD1D0F8880010F44060CA
:1038A00009D0B0F5806F17D0B0F5006F12D0B0F529
:1038B000406F13D010205B4A5B4F00264FF400414D
:1038C000634539D160B102280DD004280DD00828F5
:1038D00031D10EE00220EEE70420ECE70820EAE711
:1038E000FEF7FAFB03E0114603E0FEF719FC0100C6
:1038F0007BD0606A37F810206768B1FBF2F007EB05
:103900004703834269D8B0EB073F66D800230846D7
:103910001946FCF7F1FC090241EA1061020278083D
:10392000101871413A460023FCF7E6FC3F4AA0F527
:103930004071914257D950E0E3694FF6EF788B42DE
:103940002BD1092849D2DFE800F005080D482548A9
:1039500048480E00FEF7C0FB01E0FEF7CFFB010078
:1039600001D142E01146606A37F81000B1FBF0F077
:103970004100606801EB5001B1FBF0F1A1F11000D2
:1039800040452AD84FF6F07201EA0200C1F3420125
:10399000084328E0FEF7C4FBE1E709281DD2DFE871
:1039A00000F005080D1C1E1C1C1C0E00FEF794FBED
:1039B00001E0FEF7A3FB010001D116E01146606AA9
:1039C00037F81000B1FBF0F1606801EB5001B1FB7A
:1039D000F0F0A0F11001414504D9012505E0FEF702
:1039E0009FFBE8E780B22168C8600120A4F86A0064
:1039F00024F8680F2846A660E660BDE8F081000064
:103A000000800040F369FFCFFFF4FF110038014050
:103A1000001002400044004000480040004C0040BC
:103A2000005000400024F400223C0008FFFC0F007E
:103A30002DE9F0479A4617460E4604464FF0000916
:103A40004FF02008089D4AE0681C48D0FDF7D2FFDF
:103A5000A0EB0A00A8422AD84DB3206801684907A4
:103A60003DD5C069C043000539D421684FF40060DA
:103A70000862206850E8001F21F4D07140E800126D
:103A8000002AF6D12068083050E8001F21F001011B
:103A900040E80012002AF5D144F8848FC4F804806D
:103AA000C4F8088004F8049C0320BDE8F08721686E
:103AB00051E8000F20F4D07041E80002002AF6D14E
:103AC0002068083050E8001F21F0010140E8001292
:103AD000002AF5D144F8848FC4F80480E2E7206816
:103AE000C06936EA000004D00020B842ACD0002003
:103AF000DBE70120F9E7000010B50448FFF7D8FB29
:103B0000BDE810400248FEF73FBF0000003801400A
:103B1000AC050020FEE701460020FFF723B901466F
:103B20004020FFF71FB90907090E002804DB00F148
:103B3000E02080F80014704700F00F0000F1E02052
:103B400080F8141D7047000010B504460420FEF7ED
:103B500025FD0148048010BD100000204FF47A714B
:103B6000484300F001B8000070B54FF0E024002297
:103B700065690949A36909884843A1699942FCD04C
:103B800002D2A3EB010302E0A5EB010633441A4481
:103B90000B468242F1D370BD1000002008B5FDF73E
:103BA00037FFFFF731FCFFF79FFAFFF777FAFFF7D0
:103BB00049FBFFF7F9F9FFF743FAFFF71FFBFFF7A0
:103BC000E9FAAA20FFF7C0FF0D48FFF78BFBFFF7CC
:103BD000B3FBFFF792FB0B48FEF7AEFD64220A49E8
:103BE0000A48FDF7E1F90A48FEF7A6FD0020064A5B
:103BF000014600906423C8320648FDF7ABFBFEE7A0
:103C0000AC0500201405002044020020D40300204D
:103C100060050020A00400204FF04070E1EE100A83
:103C20007047010002000400060008000A000C00B2
:103C30001000200040008000000101010103070185
:103C40000000080402040801010100000000000057
:103C50000000010203040607080900000000010239
:103C600003040000843C000800000020440200001F
:103C700014020008403E000844020020BC0A000074
:103C800070020008321082012B24F40E12FF1C1067
:103C90008C84012B85F6061484940C1010202010BF
:103CA00008040201FF01020408102020160809CEB2
:103CB000B8082C027A4A01137A02191B1112031E4A
:103CC000FF4949497F0419401560020CC0100AF8E9
:103CD000888888FF8888A818101004047C038060F6
:103CE0001F80432C10284681803D808282FE031A6B
:103CF0008059138660258040300F22FF1780844250
:103D000021100C1010407C407F484840F2121AD617
:103D10001212F2022010908E404F201E804F201869
:103D20000710204F80200E14A4442434AD66249440
:103D30000444A414180C08090808090909FD090914
:103D40000B0922084EF808FF08F8A1247A02021293
:103D50000F1BFF080439A01967111AF06D180AF03B
:103D600080904C57A4544C8450180F1F100F081FFC
:103D700010101515FF1515101088200D60F8070498
:103D8000E4A4A4BFA4A4E4041A019D3C40407FEF36
:103D9000847F40404BFF0801290B6A4101295F20C5
:103DA00010100C4424140405060404142444140CB8
:103DB0002B40401B2A7F05493F1BFE4001112EFF6F
:103DC000804020103F111C7F2020782A3F1623407E
:103DD0007828090202C2020202FE820119BF1915E7
:103DE0001977390439381602E222223E2808088859
:103DF00048390E08C880154382423E2009217129A6
:103E0000252321287039961DF8898E880139A0193B
:103E1000681B1807485480403F8B04840119E0CA8E
:103E2000200111300E2010E824272424E424342C0F
:103E300020E01D80601F090107127F090949897F61
:04000005080001D915
:00000001FF
